:100000000C945E000C9486000C9486000C94860080
:100010000C9486000C9486000C9486000C94860048
:100020000C9486000C9486000C9486000C94860038
:100030000C9486000C9486000C9486000C94860028
:100040000C949B040C9486000C9469040C94430457
:100050000C9486000C9486000C9486000C94860008
:100060000C9486000C948600000000080002010039
:100070000003040700000000000000000000000072
:10008000250028002B0000000000240027002A0083
:10009000040404040404040402020202020203032E
:1000A0000303030301020408102040800102040836
:1000B0001020010204081020E5043D0811241FBE91
:1000C000CFEFD8E0DEBFCDBF22E0ACE5B1E001C0AC
:1000D0001D92A537B207E1F711E0A0E0B1E0E0EB37
:1000E000F5E102C005900D92AC35B107D9F710E0EB
:1000F000CDE5D0E004C02197FE010E94D308CC35A5
:10010000D107C9F70E945F050C94CB0A0C9400003C
:1001100090E0FC01EC55FF4F249180579F4FFC016C
:100120008491882399F090E0880F991FFC01EA5789
:10013000FF4FA591B491FC01E458FF4F8591949134
:100140008FB7F894EC91E22BEC938FBF089508954C
:10015000AF92BF92CF92DF92EF92FF920F931F93D5
:10016000CF93DF936C017B018B01040F151FEB0113
:100170005E01AE18BF08C017D10759F06991D601CA
:10018000ED91FC910190F081E02DC6010995892B3C
:1001900079F7C501DF91CF911F910F91FF90EF90FB
:1001A000DF90CF90BF90AF900895FC01538D448DA8
:1001B000252F30E0842F90E0821B930B541710F012
:1001C000CF96089501970895FC01918D828D98171F
:1001D00061F0A28DAE0FBF2FB11D5D968C91928DF7
:1001E0009F5F9F73928F90E008958FEF9FEF089528
:1001F000FC01918D828D981731F0828DE80FF11DF1
:10020000858D90E008958FEF9FEF0895FC01918D0B
:10021000228D892F90E0805C9F4F821B91098F7304
:10022000992708958AE691E00E94060121E0892B32
:1002300009F420E0822F089580E090E0892B29F0D6
:100240000E94120181110C9400000895FC01A48DFC
:10025000A80FB92FB11DA35ABF4F2C91848D90E0E8
:1002600001968F739927848FA689B7892C93A089CB
:10027000B1898C91837080648C93938D848D981355
:1002800006C00288F389E02D80818F7D80830895E8
:10029000EF92FF920F931F93CF93DF93EC0181E0D6
:1002A000888F9B8D8C8D98131AC0E889F98980817D
:1002B00085FF15C09FB7F894EE89FF896083E889B0
:1002C000F98980818370806480839FBF81E090E0A2
:1002D000DF91CF911F910F91FF90EF900895F62E2F
:1002E0000B8D10E00F5F1F4F0F731127E02E8C8DC9
:1002F0008E110CC00FB607FCFACFE889F98980810E
:1003000085FFF5CFCE010E942601F1CFEB8DEC0FDA
:10031000FD2FF11DE35AFF4FF0829FB7F8940B8F2A
:10032000EA89FB8980818062CFCFCF93DF93EC0194
:10033000888D8823B9F0AA89BB89E889F9898C91CD
:1003400085FD03C0808186FD0DC00FB607FCF7CF89
:100350008C9185FFF2CF808185FFEDCFCE010E9489
:100360002601E9CFDF91CF91089590E0FC01E85993
:10037000FF4F2491FC01EC55FF4F3491FC01E057F5
:10038000FF4FE491EE23C9F0222339F0233001F12D
:10039000A8F4213019F1223029F1F0E0EE0FFF1F0F
:1003A000E458FF4FA591B4918FB7F894EC91611187
:1003B00026C030953E233C938FBF08952730A9F087
:1003C0002830C9F0243049F7809180008F7D03C028
:1003D000809180008F7780938000DFCF84B58F7706
:1003E00084BDDBCF84B58F7DFBCF8091B0008F774C
:1003F0008093B000D2CF8091B0008F7DF9CF3E2B9B
:10040000DACF3FB7F8948091610190916201A09199
:100410006301B091640126B5A89B05C02F3F19F078
:100420000196A11DB11D3FBFBA2FA92F982F882774
:10043000BC01CD01620F711D811D911D42E0660F4F
:10044000771F881F991F4A95D1F708958F929F9221
:10045000AF92BF92CF92DF92EF92FF924B015C017D
:100460000E9401026B017C010E9401026C197D094E
:100470008E099F09683E734081059105A8F321E02C
:10048000821A9108A108B10888EEC80E83E0D81E30
:10049000E11CF11C81149104A104B10429F7FF901F
:1004A000EF90DF90CF90BF90AF909F908F90089586
:1004B0002FB7F89460915D0170915E0180915F01AA
:1004C000909160012FBF089590E080E00895CF9350
:1004D000DF93EC0160E08E810E94B50161E08E81C6
:1004E0000E94B50160E08E810E94B5018BE891E029
:1004F0000197F1F7DF91CF910895CF92DF92EF92BC
:10050000FF920F931F93CF93DF936C017C0187E0E1
:10051000E80EF11CD0E0C0E0062F10E0B8010C2E70
:1005200002C0759567950A94E2F76170F7018191B1
:100530007F010E94B5012196C430D10579F7C6012B
:10054000DF91CF911F910F91FF90EF90DF90CF90AF
:100550000C946702CF92DF92EF92FF920F931F935A
:10056000CF93DF93EC01F62E642F8C810E94B501AE
:100570008D818F3F19F060E00E94B5010F2D10E0D2
:100580008F8584FF25C06E0187E0C80ED11CF12C39
:10059000E12CB8010E2C02C0759567950A94E2F71C
:1005A0006170F60181916F010E94B501FFEFEF1AB2
:1005B000FF0A88E0E816F10461F7CE01DF91CF91E0
:1005C0001F910F91FF90EF90DF90CF900C946702F6
:1005D000B80184E0759567958A95E1F7CE010E9490
:1005E0007D026F2DCE01DF91CF911F910F91FF9072
:1005F000EF90DF90CF900C947D0240E0682F83E570
:1006000092E00C94AA02CF93DF93823029F4909168
:100610006202986090936202809366021092670271
:1006200080E48093680280E18093690280E5809392
:100630006A02809157020E948800809158028F3F81
:1006400011F00E948800809159020E948800C3E541
:10065000D2E09E01235532408091620284FD0AC09F
:1006600084E090E02196281739073CF48E810E949F
:100670008800EFCF88E090E0F5CF8BE39DE0019715
:10068000F1F760E0809157020E94B50160E080912F
:1006900059020E94B501809158028F3F19F060E025
:1006A0000E94B5018091620284FD39C063E083E558
:1006B00092E00E947D02CBE4D6E4CE010197F1F7EF
:1006C00063E083E592E00E947D022197F1F763E009
:1006D00083E592E00E947D0283E592E00197F1F7C5
:1006E00062E083E592E00E947D0280916202806276
:1006F0000E94FD0284E0809363028CE00E94FD0270
:1007000081E00E94FD028BE39FE10197F1F782E017
:100710008093640286E0DF91CF910C94FD028062A9
:100720000E94FD028BE496E40197F1F7809162024A
:1007300080620E94FD0283E592E00197F1F78091CB
:10074000620280620E94FD02D0CF41E00E94AA02B4
:1007500081E090E00895FC0101900020E9F73197D5
:10076000AF01481B590BBC018AE691E00C94A8002C
:100770008F929F92AF92BF920F931F93CF93DF936D
:10078000CDB7DEB7A1970FB6F894DEBF0FBECDBFD1
:1007900019A2423008F44AE08E010F5D1F4F842EEB
:1007A000912CB12CA12CA50194010E947A08E62F6E
:1007B000B901CA01EA30F4F4E05DD801EE938D018D
:1007C000232B242B252B79F790E080E0109719F04C
:1007D000CD010E94AB03A1960FB6F894DEBF0FBE09
:1007E000CDBFDF91CF911F910F91BF90AF909F90A0
:1007F0008F900895E95CE1CFFC01808191810097A1
:1008000011F00C9475090895EF92FF920F931F93C6
:10081000CF93DF93EC017B018A0188819981009756
:1008200029F02A813B812417350788F4B8016F5FCE
:100830007F4F0E94FE09009791F0998388831B8364
:100840000A832C813D81232B11F4FC0110821D832E
:100850000C83B701888199810E94C40A0CC08881E9
:100860009981009711F00E947509198218821D82E2
:100870001C821B821A82CE01DF91CF911F910F91B2
:10088000FF90EF9008951F920F920FB60F921124D0
:100890002F933F934F935F936F937F938F939F9388
:1008A000AF93BF93EF93FF938AE691E00E942601F6
:1008B000FF91EF91BF91AF919F918F917F916F9138
:1008C0005F914F913F912F910F900FBE0F901F900E
:1008D00018951F920F920FB60F9211242F938F939A
:1008E0009F93EF93FF93E0917A01F0917B018081D8
:1008F000E0918001F091810182FD1BC09081809187
:1009000083018F5F8F7320918401821741F0E09102
:100910008301F0E0E659FE4F958F80938301FF91AC
:10092000EF919F918F912F910F900FBE0F901F907D
:1009300018958081F4CF1F920F920FB60F92112459
:100940002F933F938F939F93AF93BF9380915D01BC
:1009500090915E01A0915F01B091600130915C01C6
:1009600023E0230F2D3758F50196A11DB11D2093CB
:100970005C0180935D0190935E01A0935F01B09351
:1009800060018091610190916201A0916301B09139
:1009900064010196A11DB11D8093610190936201D4
:1009A000A0936301B0936401BF91AF919F918F9128
:1009B0003F912F910F900FBE0F901F90189526E832
:1009C000230F0296A11DB11DD2CFEAE6F1E01382FA
:1009D000128288EE93E0A0E0B0E084839583A68342
:1009E000B7838AE091E09183808385EC90E09587DE
:1009F000848784EC90E09787868780EC90E0918BE9
:100A0000808B81EC90E0938B828B82EC90E0958BD5
:100A1000848B86EC90E0978B868B118E128E138ED2
:100A2000148EE7E0F2E01682178210861186128695
:100A300013861486158616861786108A118A128ADE
:100A4000138A148A158AEBE6F2E01182108213826F
:100A500012821582148250E040E06AE571E0CF0115
:100A60000E940404E3E5F2E0138212828CE191E03B
:100A70009183808384E084838FEF858386E08683FF
:100A80008AE087838BE080878CE081878DE0828796
:100A90001386148615861686178681E00E94030346
:100AA000EDE4F2E011821082138212821582148228
:100AB0004EE050E064E271E0CF010C940404CF9367
:100AC000DF93CDB7DEB768970FB6F894DEBF0FBEE1
:100AD000CDBF789484B5826084BD84B5816084BDC7
:100AE00085B5826085BD85B5816085BD80916E00CC
:100AF000816080936E0010928100809181008260FD
:100B00008093810080918100816080938100809139
:100B100080008160809380008091B1008460809328
:100B2000B1008091B00081608093B00080917A0024
:100B3000846080937A0080917A00826080937A004A
:100B400080917A00816080937A0080917A00806839
:100B500080937A001092C1001092490210924A02CA
:100B600010924B0210924C021092090210920A024B
:100B700010920B0210920C020E9458026B017C0131
:100B80004B015C0128EB820E2BE0921EA11CB11CD4
:100B90000E9458026C157D058E059F0528F086166B
:100BA0009706A806B906A0F768EE73E080E090E02B
:100BB0000E942602E0917A01F0917B0182E080831D
:100BC000E0917601F09177011082E0917801F09147
:100BD000790180E1808310928201E0917E01F091A1
:100BE0007F0186E08083E0917C01F0917D0180812E
:100BF00080618083E0917C01F0917D01808188603B
:100C00008083E0917C01F0917D0180818068808308
:100C1000E0917C01F0917D0180818F7D80830E9435
:100C200058026093090270930A0280930B0290931A
:100C30000C0283E391E00E94AB030E9458026B0117
:100C40007C014B015C013AE0830E911CA11CB11C9C
:100C50000E9458026C157D058E059F0528F08616AA
:100C60009706A806B906A0F781E080931D0282E0EE
:100C70000E9403038E010F5F1F4F80E0282E80E04B
:100C8000382E94EF492E55245394612C712C0E94D8
:100C90005802672B682B692B09F4E0C00E945802A8
:100CA000C0906601D0906701E0906801F090690102
:100CB0006C157D058E059F0508F460C1C090660126
:100CC000D0906701E0906801F09069019B01AC0150
:100CD0002C193D094E095F0969017A013AEFC316E3
:100CE000D104E104F10408F4C1C06093660170937B
:100CF00067018093680190936901409215025092B8
:100D00001602609217027092180210921902109245
:100D10001A0210921B0210921C0280910D029091F7
:100D20000E02A0910F02B0911002809311029093D5
:100D30001202A0931302B09314020E94580260930F
:100D40000D0270930E0280930F02909310020E9486
:100D500058026093090270930A0280930B029093E9
:100D60000C020E9458026B017C0184E491E00E9415
:100D7000AB034AE061E070E080E090E00E94B803DD
:100D80008BE491E00E94AB034AE0C701B6010E94E8
:100D9000B8038DE491E00E94AB0380910D02909125
:100DA0000E02A0910F02B0911002A7019601281B1C
:100DB000390B4A0B5B0BCA01B9014AE00E94B80328
:100DC0008DE491E00E94AB0360910D0270910E02E0
:100DD00080910F0290911002C0901102D0901202E7
:100DE000E0901302F09014026C197D098E099F099E
:100DF0004AE00E94B8038FE491E00E94AB030E9496
:100E000058024AE00E94B80381E591E00E94AB03DA
:100E100088E591E00E94AB030E9458026B017C01BF
:100E20004B015C0132E0830E911CA11CB11C0E949D
:100E300058026C157D058E059F0528F086169706CD
:100E4000A806B906A0F70E94580260930D0270939D
:100E50000E0280930F029093100208C00E94580265
:100E6000623071058105910508F018CFE1E08091AD
:100E700066028111E0E0E195F0E0ED5AFD4F8489D2
:100E8000815F80680E94FD0240E440937C00809175
:100E90007A00806480937A0080917A0086FDFCCF8E
:100EA00080917800909179001C8A1B8A1E8A1D8A85
:100EB000188E1F8A4AE0B8010E944508F801019087
:100EC0000020E9F73197AF01401B510BB801CE016B
:100ED00043960E94040480916B0290916C020097EB
:100EE00009F457C06B897C896115710509F44FC0FD
:100EF00040916D0250916E022F89388D4217530731
:100F000008F445C00E94C40A8F89988D909370029E
:100F100080936F02188E1F8ACE0143960E94FC03B5
:100F2000F12CE12C8091510290915202E816F906C1
:100F300008F049C088E10E94FD0280915102909121
:100F40005202E816F90630F4E0914D02F0914E029B
:100F50003097B1F510926501E5E6F1E041E060817E
:100F600083E592E00E94AA0264EF71E080E090E0E5
:100F70000E9426025FEFE51AF50AD4CF609366015E
:100F800070936701809368019093690197CE0E94E6
:100F900075098B899C8990936C0280936B028D8973
:100FA0009E8990936E0280936D028F89988D9093A5
:100FB000700280936F021C8A1B8A1E8A1D8AAACF28
:100FC000EE0DFF1DCBCF88E10E94FD02F12CE12C3C
:100FD00080916F0290917002E816F906A8F58FE0F3
:100FE0008E0DE0916602E23050F5E150F0E0ED5AEE
:100FF000FD4F9489890F80680E94FD0280916F02E5
:1010000090917002E816F90630F4E0916B02F091CD
:101010006C023097B1F410926501E5E6F1E041E031
:10102000608183E592E00E94AA0264EF71E080E0B3
:1010300090E00E9426028FEFE81AF80AC9CFE1E09B
:10104000D5CFEE0DFF1DEBCF60E477E78BE190E0AD
:101050000E94260281E00E94FD028BE39FE101973E
:10106000F1F72114310409F412CE0E9412018823F1
:1010700009F40DCE0E9400000ACE8DE492E00E9499
:10108000FC038BE692E00C94FC03BB274A3031F45E
:10109000992322F4BDE2909581959F4F0C945108BD
:1010A000BB27FB015527AA27880F991FAA1FA41742
:1010B00010F0A41B83955051B9F7A05DAA3308F036
:1010C000A95DA193009779F7B111B1931192CB016A
:1010D0000C946A08DC01FC01672F71917723E1F71A
:1010E000329704C07C916D9370836291AE17BF07F5
:1010F000C8F30895A1E21A2EAA1BBB1BFD010DC067
:10110000AA1FBB1FEE1FFF1FA217B307E407F507B7
:1011100020F0A21BB30BE40BF50B661F771F881F93
:10112000991F1A9469F760957095809590959B0129
:10113000AC01BD01CF0108952F923F924F925F9273
:101140006F927F928F929F92AF92BF92CF92DF92D7
:10115000EF92FF920F931F93CF93DF93CDB7DEB73C
:10116000CA1BDB0B0FB6F894DEBF0FBECDBF0994D0
:101170002A88398848885F846E847D848C849B8427
:10118000AA84B984C884DF80EE80FD800C811B8135
:10119000AA81B981CE0FD11D0FB6F894DEBF0FBE64
:1011A000CDBFED010895EE0FFF1F0590F491E02DE6
:1011B00009940F931F93CF93DF938230910510F41E
:1011C00082E090E0E0917302F091740230E020E060
:1011D000B0E0A0E0309799F42115310509F44AC038
:1011E000281B390B24303105D8F58A819B81611584
:1011F000710589F1FB0193838283FE0111C0408157
:1012000051810281138148175907E0F048175907A7
:1012100099F4109761F012960C93129713961C9301
:101220003296CF01DF91CF911F910F9108950093D6
:10123000730210937402F4CF2115310551F0421757
:10124000530738F0A901DB019A01BD01DF01F80164
:10125000C1CFEF01F9CF9093740280937302CDCF89
:10126000FE01E20FF31F81939193225031093983DC
:101270002883D7CF2091710230917202232B41F441
:101280002091020130910301309372022093710288
:1012900020910001309101012115310541F42DB754
:1012A0003EB74091040150910501241B350BE0919C
:1012B0007102F0917202E217F307A0F42E1B3F0BAC
:1012C0002817390778F0AC014E5F5F4F24173507B8
:1012D00048F04E0F5F1F509372024093710281934A
:1012E00091939FCFF0E0E0E09CCFCF93DF93009706
:1012F000E9F0FC01329713821282A0917302B0913F
:101300007402ED0130E020E01097A1F420813181DA
:10131000820F931F209171023091720228173907B2
:1013200009F061C0F0937202E0937102DF91CF91F6
:101330000895EA01CE17DF07E8F54A815B819E0137
:1013400041155105B1F7E901FB83EA8349915991B0
:10135000C40FD51FEC17FD0761F4808191810296BF
:10136000840F951FE90199838883828193819B83F0
:101370008A83F0E0E0E012968D919C91139700979C
:10138000B9F52D913C911197CD010296820F931FD3
:1013900020917102309172022817390739F630977F
:1013A00051F51092740210927302B0937202A093DE
:1013B0007102BCCFD383C28340815181840F951FBA
:1013C000C817D90761F44E5F5F4F88819981480F34
:1013D000591F518340838A819B8193838283211586
:1013E000310509F0B0CFF0937402E09373029ECF01
:1013F000FD01DC01C0CF13821282D7CFB0E0A0E0A4
:10140000E4E0FAE00C949E088C01009751F4CB01C3
:101410000E94D9088C01C801CDB7DEB7E0E10C9479
:10142000BA08FC01E60FF71F9C0122503109E217B0
:10143000F30708F49DC0D901CD91DC911197C6172F
:10144000D70798F0C530D10530F3CE010497861741
:10145000970708F3C61BD70B2297C193D1936D93BF
:101460007C93CF010E947509D6CF5B01AC1ABD0AEF
:101470004C018C0E9D1EA0917302B0917402512CF0
:10148000412CF12CE12C109731F580917102909153
:1014900072028815990509F05CC04616570608F0D7
:1014A00058C08091000190910101009741F48DB7DF
:1014B0009EB74091040150910501841B950BE817DC
:1014C000F90708F055C0F0937202E0937102F90138
:1014D00071836083A0CF8D919C91119712966C902F
:1014E000129713967C901397A815B90559F56C01BE
:1014F00042E0C40ED11CCA14DB0420F1AC014A192D
:101500005B09DA011296159780F06282738251832B
:101510004083D9016D937C93E114F10471F0D701FC
:101520001396FC93EE93129776CF22968C0F9D1F05
:10153000F90191838083F301EFCFF0937402E0937C
:10154000730269CF4816590608F42C017D01D301B6
:101550009ACFCB010E94D9087C01009749F0AE01D7
:10156000B8010E94BB0AC8010E947509870153CFC8
:1015700010E000E050CFFB01DC0102C001900D92B1
:1015800041505040D8F70895FB01DC0101900D92C5
:101590000020E1F7089510E0CDE5D0E004C0FE01A1
:1015A0000E94D3082196CE35D107C9F7F894FFCF12
:1015B000000075028000000000004801A800D5006E
:1015C00095010601E400F80000000000A503A80052
:1015D0006402A70053656E736F722076616C756547
:1015E0003A2000564D4450565F317C315F564D4491
:1015F00050560A00564D4450455F003A323A007C3E
:0C160000005F564D445045000D0A0000EC
:00000001FF
